{
  "contractName": "createTransferPRB",
  "abi": [
    {
      "constant": true,
      "inputs": [],
      "name": "isSURegistered",
      "outputs": [
        {
          "name": "",
          "type": "uint256"
        }
      ],
      "payable": false,
      "stateMutability": "view",
      "type": "function"
    },
    {
      "constant": true,
      "inputs": [],
      "name": "availablePRBs",
      "outputs": [
        {
          "name": "",
          "type": "uint256"
        }
      ],
      "payable": false,
      "stateMutability": "view",
      "type": "function"
    },
    {
      "constant": true,
      "inputs": [],
      "name": "owner",
      "outputs": [
        {
          "name": "",
          "type": "address"
        }
      ],
      "payable": false,
      "stateMutability": "view",
      "type": "function"
    },
    {
      "constant": true,
      "inputs": [
        {
          "name": "",
          "type": "address"
        }
      ],
      "name": "registeredSU",
      "outputs": [
        {
          "name": "",
          "type": "bool"
        }
      ],
      "payable": false,
      "stateMutability": "view",
      "type": "function"
    },
    {
      "inputs": [],
      "payable": false,
      "stateMutability": "nonpayable",
      "type": "constructor"
    },
    {
      "constant": false,
      "inputs": [
        {
          "name": "_SU",
          "type": "address"
        }
      ],
      "name": "registerSU",
      "outputs": [],
      "payable": false,
      "stateMutability": "nonpayable",
      "type": "function"
    },
    {
      "constant": false,
      "inputs": [
        {
          "name": "_PRBs",
          "type": "uint256"
        }
      ],
      "name": "registerPRB",
      "outputs": [],
      "payable": false,
      "stateMutability": "nonpayable",
      "type": "function"
    },
    {
      "constant": true,
      "inputs": [],
      "name": "checkPRBAvailability",
      "outputs": [
        {
          "name": "",
          "type": "uint256"
        }
      ],
      "payable": false,
      "stateMutability": "view",
      "type": "function"
    },
    {
      "constant": false,
      "inputs": [
        {
          "name": "_requestedPRBs",
          "type": "uint256"
        }
      ],
      "name": "transferPRB",
      "outputs": [],
      "payable": false,
      "stateMutability": "nonpayable",
      "type": "function"
    }
  ],
  "bytecode": "0x608060405260008055600060035534801561001957600080fd5b5033600260006101000a81548173ffffffffffffffffffffffffffffffffffffffff021916908373ffffffffffffffffffffffffffffffffffffffff1602179055506104978061006a6000396000f3fe608060405234801561001057600080fd5b50600436106100885760003560e01c80638b05a8b81161005b5780638b05a8b8146101255780638da5cb5b14610143578063b2c63c0d1461018d578063f76399dc146101e957610088565b8063154375651461008d57806359f82eec146100ab578063856e6f34146100c957806389992bc1146100f7575b600080fd5b61009561022d565b6040518082815260200191505060405180910390f35b6100b3610233565b6040518082815260200191505060405180910390f35b6100f5600480360360208110156100df57600080fd5b8101908080359060200190929190505050610239565b005b6101236004803603602081101561010d57600080fd5b81019080803590602001909291905050506102a1565b005b61012d610309565b6040518082815260200191505060405180910390f35b61014b610369565b604051808273ffffffffffffffffffffffffffffffffffffffff1673ffffffffffffffffffffffffffffffffffffffff16815260200191505060405180910390f35b6101cf600480360360208110156101a357600080fd5b81019080803573ffffffffffffffffffffffffffffffffffffffff16906020019092919050505061038f565b604051808215151515815260200191505060405180910390f35b61022b600480360360208110156101ff57600080fd5b81019080803573ffffffffffffffffffffffffffffffffffffffff1690602001909291905050506103af565b005b60035481565b60005481565b600260009054906101000a900473ffffffffffffffffffffffffffffffffffffffff1673ffffffffffffffffffffffffffffffffffffffff163373ffffffffffffffffffffffffffffffffffffffff161461029357600080fd5b806000540160008190555050565b600160003373ffffffffffffffffffffffffffffffffffffffff1673ffffffffffffffffffffffffffffffffffffffff16815260200190815260200160002060009054906101000a900460ff166102f757600080fd5b80600080828254039250508190555050565b6000600160003373ffffffffffffffffffffffffffffffffffffffff1673ffffffffffffffffffffffffffffffffffffffff16815260200190815260200160002060009054906101000a900460ff1661036157600080fd5b600054905090565b600260009054906101000a900473ffffffffffffffffffffffffffffffffffffffff1681565b60016020528060005260406000206000915054906101000a900460ff1681565b600260009054906101000a900473ffffffffffffffffffffffffffffffffffffffff1673ffffffffffffffffffffffffffffffffffffffff163373ffffffffffffffffffffffffffffffffffffffff161461040957600080fd5b60018060008373ffffffffffffffffffffffffffffffffffffffff1673ffffffffffffffffffffffffffffffffffffffff16815260200190815260200160002060006101000a81548160ff02191690831515021790555060016003819055505056fea165627a7a72305820f8a56ad6b41dd74373a60a83ad4f18cb3cf240f5b027beb83534954c5b4b12d90029",
  "source": "pragma solidity ^0.5.2;\n\ncontract createTransferPRB{\n    \n    //Contract variables \n    uint public availablePRBs = 0;\n    mapping (address =>bool) public registeredSU;\n    address public owner; //Smart contract owner\n    uint public isSURegistered = 0;\n    \n    constructor() public{\n        //Owner set as user deploying the smart contract\n        owner = msg.sender;\n    }\n    \n    function registerSU (address _SU) public {\n        require(msg.sender == owner); //Only PU can register SU\n        registeredSU[_SU] = true;\n        isSURegistered = 1;\n    }\n    \n    function registerPRB(uint _PRBs) public{\n        require(msg.sender == owner); //Only PU can register SU\n        availablePRBs = availablePRBs + _PRBs;\n    }\n    \n    function checkPRBAvailability () view public returns (uint) {\n        require (registeredSU[msg.sender]); //Only registered SU users\n        return availablePRBs;\n    }\n    \n    function transferPRB (uint _requestedPRBs) public {\n        require (registeredSU[msg.sender]); //Only registered SU users\n        //uint ether_amount = _requestedPRBs; //Converts PRBs into Ether\n        //msg.sender.transfer(ether_amount);\n        availablePRBs -= _requestedPRBs;\n    }\n    \n    \n    \n    \n    \n    \n    \n}",
  "sourcePath": "/Users/PedroOzoBustamante/Desktop/SpectrumContracts/registerTransferPRBs/contracts/createTransferPRB.sol",
  "compiler": {
    "name": "solc",
    "version": "0.5.8+commit.23d335f2.Emscripten.clang"
  },
  "schemaVersion": "3.0.10",
  "updatedAt": "2019-07-25T17:16:51.165Z",
  "devdoc": {
    "methods": {}
  },
  "userdoc": {
    "methods": {}
  }
}