{
  "contractName": "useBurnPRB",
  "abi": [
    {
      "constant": true,
      "inputs": [],
      "name": "burntPRBs",
      "outputs": [
        {
          "name": "",
          "type": "uint256"
        }
      ],
      "payable": false,
      "stateMutability": "view",
      "type": "function"
    },
    {
      "constant": true,
      "inputs": [],
      "name": "owner",
      "outputs": [
        {
          "name": "",
          "type": "address"
        }
      ],
      "payable": false,
      "stateMutability": "view",
      "type": "function"
    },
    {
      "constant": true,
      "inputs": [],
      "name": "receivedPRBs",
      "outputs": [
        {
          "name": "",
          "type": "uint256"
        }
      ],
      "payable": false,
      "stateMutability": "view",
      "type": "function"
    },
    {
      "inputs": [],
      "payable": false,
      "stateMutability": "nonpayable",
      "type": "constructor"
    },
    {
      "constant": false,
      "inputs": [
        {
          "name": "_usedPRB",
          "type": "uint256"
        }
      ],
      "name": "usePRB",
      "outputs": [],
      "payable": true,
      "stateMutability": "payable",
      "type": "function"
    },
    {
      "constant": false,
      "inputs": [],
      "name": "burnPRB",
      "outputs": [],
      "payable": false,
      "stateMutability": "nonpayable",
      "type": "function"
    }
  ],
  "bytecode": "0x60806040526000600155600060025534801561001a57600080fd5b50336000806101000a81548173ffffffffffffffffffffffffffffffffffffffff021916908373ffffffffffffffffffffffffffffffffffffffff1602179055506103628061006a6000396000f3fe60806040526004361061004a5760003560e01c80630d34dd631461004f5780637782fd571461007d5780638da5cb5b146100a85780639985182e146100ff5780639e21c4e114610116575b600080fd5b61007b6004803603602081101561006557600080fd5b8101908080359060200190929190505050610141565b005b34801561008957600080fd5b506100926101af565b6040518082815260200191505060405180910390f35b3480156100b457600080fd5b506100bd6101b5565b604051808273ffffffffffffffffffffffffffffffffffffffff1673ffffffffffffffffffffffffffffffffffffffff16815260200191505060405180910390f35b34801561010b57600080fd5b506101146101da565b005b34801561012257600080fd5b5061012b610309565b6040518082815260200191505060405180910390f35b60018102341461019c576040517f08c379a00000000000000000000000000000000000000000000000000000000081526004018080602001828103825260278152602001806103106027913960400191505060405180910390fd5b8060016000828254019250508190555050565b60025481565b6000809054906101000a900473ffffffffffffffffffffffffffffffffffffffff1681565b6000809054906101000a900473ffffffffffffffffffffffffffffffffffffffff1673ffffffffffffffffffffffffffffffffffffffff163373ffffffffffffffffffffffffffffffffffffffff161461029c576040517f08c379a00000000000000000000000000000000000000000000000000000000081526004018080602001828103825260158152602001807f53656e646572206e6f7420617574686f72697a6564000000000000000000000081525060200191505060405180910390fd5b6000600180540290503373ffffffffffffffffffffffffffffffffffffffff166108fc829081150290604051600060405180830381858888f193505050501580156102eb573d6000803e3d6000fd5b50600154600260008282540192505081905550600060018190555050565b6001548156fe54686520616d6f756e74206f662065746865722073656e74206973206e6f7420636f7272656374a165627a7a723058209147808096c1d9975060dbb0242e1d699faf1b7f3e1539d2ba9b9853b2ced1ba0029",
  "source": "pragma solidity ^0.5.8;\ncontract useBurnPRB{\n    \n    //Variables\n    address public owner;\n    uint public receivedPRBs=0;\n    uint constant price = 1;\n    uint public burntPRBs = 0;\n    \n    constructor () public{\n        owner = msg.sender;\n    }\n    \n    function usePRB(uint _usedPRB) payable public{\n        if (msg.value != (_usedPRB * price)){\n         revert(\"The amount of ether sent is not correct\");   \n        }\n        receivedPRBs += _usedPRB;\n    }\n    \n    function burnPRB() public{\n        require(msg.sender == owner,\"Sender not authorized\");\n        uint ether_amount = receivedPRBs*price; //Converts PRBs into Ether\n        msg.sender.transfer(ether_amount);\n        burntPRBs += receivedPRBs;\n        receivedPRBs = 0;\n        \n    }\n    \n}",
  "sourcePath": "/Users/PedroOzoBustamante/Desktop/SpectrumContracts/registerTransferPRBs/contracts/useBurnPRB.sol",
  "compiler": {
    "name": "solc",
    "version": "0.5.8+commit.23d335f2.Emscripten.clang"
  },
  "schemaVersion": "3.0.10",
  "updatedAt": "2019-07-25T17:27:12.496Z",
  "devdoc": {
    "methods": {}
  },
  "userdoc": {
    "methods": {}
  }
}